:100000008B000000130E10008B00000063980008A6
:10001000130E2000B70E0100B700010037010100E8
:100020000B8020028B000000639AD007130E300073
:10003000930E0001B7100000130100100B80200286
:100040008B000000639CD005130E4000B70E080023
:10005000B7000200370104000B8020028B00000073
:10006000639ED003130E5000B78E0500B700010049
:1000700037010100B701020037020200B782000019
:10008000370301000B8020020B8041020B806202CB
:100090008B0000006394D0016F000001370110F065
:1000A000130141F22320C101370110F0130101F2C5
:1000B00023200100130000001300000013000000C3
:0C00C000130000001300000013000000FB
:00000001FF
